:020000000328D3
:100006008316860183128601213086000730CB00D5
:100016005830CC005930CD00CD0B0F28CC0B0F2813
:10002600CB0B0F280000000011308600A330CC0057
:100036005530CD00CD0B1D28CC0B1D280130860078
:10004600A330CC005530CD00CD0B2728CC0B27286C
:1000560011308600A330CC005530CD00CD0B3128B1
:10006600CC0B31280C3086000730CB005830CC0042
:100076005930CD00CD0B3D28CC0B3D28CB0B3D2870
:100086000000000008308600A330CC005530CD00BB
:10009600CD0B4B28CC0B4B280A308600A330CC0066
:1000A6005530CD00CD0B5528CC0B55280830860091
:1000B600A330CC005530CD00CD0B5F28CC0B5F288C
:1000C6000A308600A330CC005530CD00CD0B692810
:0800D600CC0B692807286E28F5
:02400E00FA3F77
:00000001FF
