:02000000C52811
:0E000600213083120313FD00FD0B07280800B4
:0E0014008312031322088A00210882000800CC
:06002200000000000800D0
:100028000F3083120313FC004730FD00FD0B1A2824
:0A003800FC0B1A280000000008006D
:1000420083160313881108110812881208138813E3
:1000520083128811081188130813881208121420B9
:1000620014201420881608168815112088111420CF
:100072008815112088111420881511208811142048
:100082000812881511208811142088151120881152
:1000920088128817881511208811142088130816D1
:1000A2008815112088110812881511208811142032
:1000B200881511208811081688151120881114201E
:1000C2000812881511208811881708178816081633
:0C00D2008815112088111420201408004B
:1000DE000A208A110A128000840AA10A0319A20AB0
:0800EE00F003031D6F28080058
:1000F60083120313A31B8128881382288817231BC6
:100106008628081387280817A31A8B2888128C2894
:100116008816231A90280812912808162018952860
:10012600081596280811881511208811A3199D28ED
:1001360088139E2888172319A2280813A3280817AE
:10014600A318A7288812A82888162318AC280812EE
:10015600AD2808162018B1280815B22808118815E8
:1001660011208811201CB9281420BA280320080061
:10017600803083120313F0007008063E8400FF30BF
:0401860080000800ED
:10018A00BB2021200130A3007B200C30A3007B2060
:02019A00CD286E
:02400E004A2F37
:00000001FF
