:020000002C29A9
:0C00060021308312CD00CD0B062808002D
:100012000F308312CC004730CD00CD0B0E28CC0B15
:080022000E2800000000080098
:06002A00000000000800C8
:100030008312B81B1D2806131E280617381B2228FA
:10004000861223288616B81A27280612282806168C
:10005000381A2C2886112D28861531183128861437
:1000600032288610061515200611B81939280613EE
:100070003A28061738193E2886123F288616B818DF
:10008000432806124428061638184828861149289D
:10009000861531184D2886144E2886100615152011
:0E00A0000611311C552809205628032008009F
:0C00AE00831230088A002F08820008002E
:0E00BA00831231103708B800182031140800E6
:1000C800752880308312B3008628C030B300862894
:1000D8009430B3008628D430B30086288030B3002B
:1000E80086283308013A031965283308023A0319A8
:1000F80069283308033A03196C283308043A0319AA
:100108006F2872283403C0003308C0074008B300C2
:100118004008B80018203110B601360835078400A9
:10012800000803199F283608350784000008B7001F
:0A0138005D20B60A9128311408007A
:10014200B22880308312B300C328C030B300C32862
:100152009430B300C328D430B300C3288030B30036
:10016200C3283308013A0319A2283308023A0319B3
:10017200A6283308033A0319A9283308043A0319B5
:10018200AC28AF283403C0003308C0074008B300CE
:1001920031144008B800182031103508B800182072
:0401A200311408000C
:1001A60057208A110A128000840AAF0A0319B00A7E
:0801B600C003031DD32808005B
:1001BE0083160611861086110612861206138312F6
:1001CE0006118610061386120612861109200920C2
:1001DE000920061686150615152006110920061586
:1001EE001520061109200615152006110920861165
:1001FE0006151520061109200615152006110612E2
:10020E000617061515200611092006138615061564
:10021E001520061186110615152006110920061542
:10022E0015200611861506151520061109208611B2
:10023E0006151520061106178616061686150615BE
:0A024E0015200611092031140800E4
:10025800563083128C0045308D004E308E008F0151
:100268004A309000453091005530920093014D304E
:10027800940045309500523096009701443098001C
:10028800493099004D309A009B0153309C00413011
:100298009D004D309E009F014D30A0004130A100CF
:1002A8005230A200A3014C30A4005530A5004E30B6
:1002B800A600A7013030AC003030AD003030A800C7
:1002C8003030A9003030AA003030AE003A30AB00F0
:1002D8000130B200DF200C30B80018200130B30024
:1002E8000830B4002E08B500A1200130B300073053
:1002F800B4002A08B500A1200130B3000630B400CC
:100308002B08B500A1200130B3000530B40029083E
:10031800B500A1200130B3000430B4002808B500AE
:10032800A1200130B3000330B4002B08B500A12090
:100338000130B3000230B4002D08B500A12001300F
:10034800B3000130B4002C08B500A1200230CB0066
:100358000430CC00BA30CD00CD0BB029CC0BB0297D
:10036800CB0BB0290000AE0A2E083A3A031DBF296C
:100378003030AE00AA0A2A08363A031DC8293030A0
:10038800AE003030AA00A90A29083A3A031DD32939
:100398003030AE003030AA003030A900A80A280852
:1003A800363A031DE0293030AE003030AA00303034
:1003B800A9003030A800AD0A2D083A3A031DEF29EC
:1003C8003030AE003030AA003030A9003030A800FC
:1003D8003030AD00AC0A2C08323A031D042A2D082F
:1003E800343A031D042A3030AE003030AA003030D1
:1003F800A9003030A8003030AD003030AC00B20A6F
:100408000130B3000830B4002E08B500A120013037
:10041800B3000730B4002A08B500A1200130B300AA
:100428000530B4002908B500A1200130B30004301C
:10043800B4002808B500A1200130B3000230B40090
:100448002D08B500A1200130B3000130B4002C08FC
:10045800B500A1203208013A031D392A0130B30042
:100468000A30B4002430B50064203208023A031D73
:10047800442A0130B3000A30B4002030B5006420AB
:100488003208033A031D4F2A0130B3000A30B40082
:100498001430B50064203208043A031D5A2A01308A
:1004A800B3000A30B4001030B50064203208053AB1
:1004B800031D652A0130B3000A30B4000C30B500C2
:1004C80064203208063A031D702A0130B3000A304E
:1004D800B4001C30B50064203208073A031D7B2A9B
:1004E8000130B3000A30B4001830B5006420320877
:0E04F800083A031D812A0130B200AA29822A87
:02400E00FA3F77
:00000001FF
