:02000000642A70
:06000600000000000800EC
:0E000C00213083120313FD00FD0B0A280800AB
:10001A000F3083120313FC004730FD00FD0B132839
:0A002A00FC0B132800000000080082
:1000340083120313D61B2028881321288817561BE4
:100044002528081326280817D61A2A2888122B28A8
:100054008816561A2F2808123028081645183428EE
:10006400081535280811881503208811D6193C284D
:1000740088133D2888175619412808134228081761
:10008400D618462888124728881656184B2808126E
:100094004C280816451850280815512808118815A9
:1000A40003208811451C58280D20592806200800D3
:1000B40083120313D101D301D4011030D5000430CD
:1000C400540203188B28F03086008030F00070084A
:1000D400063E84005509F0007008800003200320C8
:1000E4000F300605F0007008D20070080319852847
:1000F4005308D100520803198328D20CD213D10A11
:100104007C280430D400D50D55100430D307D40A0C
:0801140061285108F000080009
:10011C008312031345105108D6001A204514080009
:10012C00063083120313FD00FD0B9A280000080013
:0E013C008312031344088A004308820008005F
:10014A005A207008CD000F300605F0000319AF28B9
:0A015A009620A8284D08F0000800C8
:10016400C428803083120313CD00D728C030CD00BB
:10017400D7289430CD00D728D430CD00D72880306C
:10018400CD00D728831203134D08013A0319B3286D
:100194004D08023A0319B8284D08033A0319BB283D
:1001A4004D08043A0319BE28C1284E03F0004D0837
:1001B400F0077008CD007008D6001A204510D00151
:1001C40050084F07840000080319F02850084F070F
:1001D40084000008D1008E20D00AE22845140800CB
:1001E4000429803083120313CD001729C030CD00B9
:1001F40017299430CD001729D430CD001729803029
:10020400CD001729831203134D08013A0319F3286B
:100214004D08023A0319F8284D08033A0319FB283C
:100224004D08043A0319FE2801294E03F0004D0835
:10023400F0077008CD0045147008D6001A20451048
:0A0244004F08D6001A2045140800E8
:10024E00831203134D088400000803193B294D083F
:10025E0084000008F1004E08840071080006031D9A
:10026E003B29CD0ACE0A27294D0884000008F0004C
:10027E004E0884000008F002F101031CF10308008F
:10028E00013083120313D6001A200130CD00013045
:10029E00CE002E30CF00B220C601C70180304706F7
:1002AE00F00080307002031D5E29033046020318F1
:1002BE00EA294608483E84000008003A031D7029CA
:1002CE004608483ECC00A5204C08840070088000EB
:1002DE0060294608483E84000008013A031D7C2927
:1002EE004608483E8400373080004608483E840069
:1002FE000008023A031D88294608483E840038301B
:10030E0080004608483E84000008033A031D9429E5
:10031E004608483E8400393080004608483E840036
:10032E000008053A031DA0294608483E84003430D3
:10033E0080004608483E84000008063A031DAC299A
:10034E004608483E8400353080004608483E84000A
:10035E000008073A031DB8294608483E8400363087
:10036E0080004608483E84000008093A031DC4294F
:10037E004608483E8400313080004608483E8400DE
:10038E0000080A3A031DD0294608483E8400323040
:10039E0080004608483E840000080B3A031DDC2905
:1003AE004608483E8400333080000230CD00460AB5
:1003BE00CE004608483E84000008CF00F220C60A50
:1003CE000319C70A55294830CD003F30CE002721EA
:1003DE0000307106031DF52900307006031DFA2941
:1003EE000130F000FF29C801C901CA01CB0147291C
:0203FE000800F5
:10040000803083120313F0007008063E8400FF3032
:040410008000080060
:100414009E208A110A128000840AC30A0319C40A9E
:08042400F003031D0A2A080081
:10042C0083160313881108110812881208138813F5
:10043C0083128811081188130813881208120D20D2
:10044C000D200D20881608168815032088110D2004
:10045C008815032088110D208815032088110D2084
:10046C0008128815032088110D2088150320881187
:10047C00881288178815032088110D2088130816F8
:10048C0088150320881108128815032088110D2067
:10049C0088150320881108168815032088110D2053
:1004AC000812881503208811881708178816081653
:0C04BC008815032088110D20451408004D
:1004C800C222831603130710831207101622002274
:1004D8000C30D6001A2047210130D6001A200130EE
:1004E800CD000230CE002030CF00B22007100B30F4
:1004F800FB002630FC005D30FD00FD0B812AFC0B63
:10050800812AFB0B812A0000000007140B30FB0036
:100518002630FC005D30FD00FD0B902AFC0B902A74
:0C052800FB0B902A000000007A2A992AA0
:1005840020308400233083120313F0009F30C30013
:080594000230C4000A22080035
:10053E004F34503445344E342034543448344534DA
:0C054E00203444344F344F345234003415
:10055A0045346E3474346534723420345034613422
:10056A007334733477346F347234643420343A34E5
:02057A0000344B
:08057C00313432343334003411
:02400E00CA2FB7
:00000001FF
